{
  "_format": "hh-sol-artifact-1",
  "contractName": "DropFactory",
  "sourceName": "contracts/DropFactory.sol",
  "abi": [
    {
      "inputs": [
        {
          "internalType": "uint256",
          "name": "_fee",
          "type": "uint256"
        },
        {
          "internalType": "address",
          "name": "_feeReceiver",
          "type": "address"
        },
        {
          "internalType": "address",
          "name": "_timelock",
          "type": "address"
        }
      ],
      "stateMutability": "nonpayable",
      "type": "constructor"
    },
    {
      "anonymous": false,
      "inputs": [
        {
          "indexed": true,
          "internalType": "address",
          "name": "tokenAddress",
          "type": "address"
        },
        {
          "indexed": false,
          "internalType": "uint256",
          "name": "index",
          "type": "uint256"
        },
        {
          "indexed": true,
          "internalType": "address",
          "name": "account",
          "type": "address"
        },
        {
          "indexed": false,
          "internalType": "uint256",
          "name": "amount",
          "type": "uint256"
        },
        {
          "indexed": true,
          "internalType": "bytes32",
          "name": "merkleRoot",
          "type": "bytes32"
        }
      ],
      "name": "DropClaimed",
      "type": "event"
    },
    {
      "anonymous": false,
      "inputs": [
        {
          "indexed": true,
          "internalType": "address",
          "name": "dropAddress",
          "type": "address"
        },
        {
          "indexed": true,
          "internalType": "address",
          "name": "tokenAddress",
          "type": "address"
        }
      ],
      "name": "DropCreated",
      "type": "event"
    },
    {
      "anonymous": false,
      "inputs": [
        {
          "indexed": true,
          "internalType": "address",
          "name": "tokenAddress",
          "type": "address"
        },
        {
          "indexed": false,
          "internalType": "bytes32",
          "name": "merkleRoot",
          "type": "bytes32"
        },
        {
          "indexed": false,
          "internalType": "uint256",
          "name": "tokenAmount",
          "type": "uint256"
        },
        {
          "indexed": false,
          "internalType": "uint256",
          "name": "startDate",
          "type": "uint256"
        },
        {
          "indexed": false,
          "internalType": "uint256",
          "name": "endDate",
          "type": "uint256"
        }
      ],
      "name": "DropDataAdded",
      "type": "event"
    },
    {
      "anonymous": false,
      "inputs": [
        {
          "indexed": true,
          "internalType": "address",
          "name": "tokenAddress",
          "type": "address"
        },
        {
          "indexed": true,
          "internalType": "address",
          "name": "account",
          "type": "address"
        },
        {
          "indexed": true,
          "internalType": "bytes32",
          "name": "merkleRoot",
          "type": "bytes32"
        },
        {
          "indexed": false,
          "internalType": "uint256",
          "name": "amount",
          "type": "uint256"
        }
      ],
      "name": "DropWithdrawn",
      "type": "event"
    },
    {
      "inputs": [
        {
          "internalType": "uint256",
          "name": "tokenAmount",
          "type": "uint256"
        },
        {
          "internalType": "uint256",
          "name": "startDate",
          "type": "uint256"
        },
        {
          "internalType": "uint256",
          "name": "endDate",
          "type": "uint256"
        },
        {
          "internalType": "bytes32",
          "name": "merkleRoot",
          "type": "bytes32"
        },
        {
          "internalType": "address",
          "name": "tokenAddress",
          "type": "address"
        }
      ],
      "name": "addDropData",
      "outputs": [],
      "stateMutability": "nonpayable",
      "type": "function"
    },
    {
      "inputs": [
        {
          "internalType": "address",
          "name": "tokenAddress",
          "type": "address"
        },
        {
          "internalType": "uint256",
          "name": "index",
          "type": "uint256"
        },
        {
          "internalType": "uint256",
          "name": "amount",
          "type": "uint256"
        },
        {
          "internalType": "bytes32",
          "name": "merkleRoot",
          "type": "bytes32"
        },
        {
          "internalType": "bytes32[]",
          "name": "merkleProof",
          "type": "bytes32[]"
        }
      ],
      "name": "claimFromDrop",
      "outputs": [],
      "stateMutability": "nonpayable",
      "type": "function"
    },
    {
      "inputs": [
        {
          "internalType": "address",
          "name": "tokenAddress",
          "type": "address"
        }
      ],
      "name": "createDrop",
      "outputs": [],
      "stateMutability": "nonpayable",
      "type": "function"
    },
    {
      "inputs": [
        {
          "internalType": "address",
          "name": "",
          "type": "address"
        }
      ],
      "name": "drops",
      "outputs": [
        {
          "internalType": "address",
          "name": "",
          "type": "address"
        }
      ],
      "stateMutability": "view",
      "type": "function"
    },
    {
      "inputs": [],
      "name": "fee",
      "outputs": [
        {
          "internalType": "uint256",
          "name": "",
          "type": "uint256"
        }
      ],
      "stateMutability": "view",
      "type": "function"
    },
    {
      "inputs": [],
      "name": "feeReceiver",
      "outputs": [
        {
          "internalType": "address",
          "name": "",
          "type": "address"
        }
      ],
      "stateMutability": "view",
      "type": "function"
    },
    {
      "inputs": [
        {
          "internalType": "address",
          "name": "tokenAddress",
          "type": "address"
        },
        {
          "internalType": "bytes32",
          "name": "merkleRoot",
          "type": "bytes32"
        }
      ],
      "name": "getDropDetails",
      "outputs": [
        {
          "internalType": "uint256",
          "name": "",
          "type": "uint256"
        },
        {
          "internalType": "uint256",
          "name": "",
          "type": "uint256"
        },
        {
          "internalType": "uint256",
          "name": "",
          "type": "uint256"
        },
        {
          "internalType": "address",
          "name": "",
          "type": "address"
        },
        {
          "internalType": "bool",
          "name": "",
          "type": "bool"
        }
      ],
      "stateMutability": "view",
      "type": "function"
    },
    {
      "inputs": [
        {
          "internalType": "address",
          "name": "tokenAddress",
          "type": "address"
        },
        {
          "internalType": "uint256",
          "name": "index",
          "type": "uint256"
        },
        {
          "internalType": "bytes32",
          "name": "merkleRoot",
          "type": "bytes32"
        }
      ],
      "name": "isDropClaimed",
      "outputs": [
        {
          "internalType": "bool",
          "name": "",
          "type": "bool"
        }
      ],
      "stateMutability": "view",
      "type": "function"
    },
    {
      "inputs": [
        {
          "internalType": "address",
          "name": "tokenAddress",
          "type": "address"
        }
      ],
      "name": "isDropCreated",
      "outputs": [
        {
          "internalType": "bool",
          "name": "",
          "type": "bool"
        }
      ],
      "stateMutability": "view",
      "type": "function"
    },
    {
      "inputs": [
        {
          "internalType": "address",
          "name": "tokenAddress",
          "type": "address"
        },
        {
          "internalType": "uint256[]",
          "name": "indexes",
          "type": "uint256[]"
        },
        {
          "internalType": "uint256[]",
          "name": "amounts",
          "type": "uint256[]"
        },
        {
          "internalType": "bytes32[]",
          "name": "merkleRoots",
          "type": "bytes32[]"
        },
        {
          "internalType": "bytes32[][]",
          "name": "merkleProofs",
          "type": "bytes32[][]"
        }
      ],
      "name": "multipleClaimsFromDrop",
      "outputs": [],
      "stateMutability": "nonpayable",
      "type": "function"
    },
    {
      "inputs": [
        {
          "internalType": "address",
          "name": "tokenAddress",
          "type": "address"
        },
        {
          "internalType": "bytes32",
          "name": "merkleRoot",
          "type": "bytes32"
        }
      ],
      "name": "pause",
      "outputs": [],
      "stateMutability": "nonpayable",
      "type": "function"
    },
    {
      "inputs": [],
      "name": "timelock",
      "outputs": [
        {
          "internalType": "address",
          "name": "",
          "type": "address"
        }
      ],
      "stateMutability": "view",
      "type": "function"
    },
    {
      "inputs": [
        {
          "internalType": "address",
          "name": "tokenAddress",
          "type": "address"
        },
        {
          "internalType": "bytes32",
          "name": "merkleRoot",
          "type": "bytes32"
        }
      ],
      "name": "unpause",
      "outputs": [],
      "stateMutability": "nonpayable",
      "type": "function"
    },
    {
      "inputs": [
        {
          "internalType": "uint256",
          "name": "newFee",
          "type": "uint256"
        }
      ],
      "name": "updateFee",
      "outputs": [],
      "stateMutability": "nonpayable",
      "type": "function"
    },
    {
      "inputs": [
        {
          "internalType": "address",
          "name": "newFeeReceiver",
          "type": "address"
        }
      ],
      "name": "updateFeeReceiver",
      "outputs": [],
      "stateMutability": "nonpayable",
      "type": "function"
    },
    {
      "inputs": [
        {
          "internalType": "address",
          "name": "tokenAddress",
          "type": "address"
        },
        {
          "internalType": "bytes32",
          "name": "merkleRoot",
          "type": "bytes32"
        }
      ],
      "name": "withdraw",
      "outputs": [],
      "stateMutability": "nonpayable",
      "type": "function"
    }
  ],
  "bytecode": "0x608060405234801561001057600080fd5b5060405161259338038061259383398101604081905261002f91610082565b600092909255600180546001600160a01b039283166001600160a01b031991821617909155600280549290931691161790556100bd565b80516001600160a01b038116811461007d57600080fd5b919050565b600080600060608486031215610096578283fd5b835192506100a660208501610066565b91506100b460408501610066565b90509250925092565b6124c7806100cc6000396000f3fe608060405234801561001057600080fd5b50600436106100ff5760003560e01c8063932ced7b11610097578063c69bebe411610066578063c69bebe414610260578063cacf0b5f14610273578063d33219b414610286578063ddca3f4314610299576100ff565b8063932ced7b146102145780639809758114610227578063b3f006741461023a578063baa863ac1461024d576100ff565b80634c19eb68116100d35780634c19eb681461018a5780634e1095e4146101cb57806388aa504a146101ee5780639012c4a814610201576100ff565b8062d5e073146101045780632d0ba1c6146101195780633625061f1461012c57806340e5e9aa14610177575b600080fd5b610117610112366004610f65565b6102b0565b005b6101176101273660046111c7565b61043c565b61013f61013a36600461105c565b6105e1565b604080519586526020860194909452928401919091526001600160a01b031660608301521515608082015260a0015b60405180910390f35b61011761018536600461105c565b610688565b6101b3610198366004610f65565b6003602052600090815260409020546001600160a01b031681565b6040516001600160a01b03909116815260200161016e565b6101de6101d9366004611087565b6107aa565b604051901515815260200161016e565b6101176101fc3660046110bb565b610880565b61011761020f366004611146565b61098e565b61011761022236600461105c565b610a2f565b61011761023536600461105c565b610aa7565b6001546101b3906001600160a01b031681565b6101de61025b366004610f65565b610aed565b61011761026e366004610f65565b610b20565b610117610281366004610f88565b610b94565b6002546101b3906001600160a01b031681565b6102a260005481565b60405190815260200161016e565b6001600160a01b0381811660009081526003602052604090205416156103135760405162461bcd60e51b8152602060048201526013602482015272464143544f52595f44524f505f45584953545360681b60448201526064015b60405180910390fd5b60006040518060200161032590610efe565b601f1982820381018352601f9091011660408190526bffffffffffffffffffffffff19606085901b166020820152909150600090603401604051602081830303815290604052805190602001209050600061038260008385610df4565b60405163189acdbd60e31b81526001600160a01b0386811660048301529192509082169063c4d66de890602401600060405180830381600087803b1580156103c957600080fd5b505af11580156103dd573d6000803e3d6000fd5b5050506001600160a01b0380861660008181526003602052604080822080549487166001600160a01b031990951685179055519193507f5e59a5b7258e0adfb3c2f716afb30b4b37aea760b8e68ba93e66622f4ec45ff391a350505050565b6001600160a01b038082166000908152600360205260409020548291166104755760405162461bcd60e51b815260040161030a90611213565b6001600160a01b03828116600081815260036020526040908190205490516323b872dd60e01b815233600482015292166024830181905260448301899052916323b872dd90606401602060405180830381600087803b1580156104d757600080fd5b505af11580156104eb573d6000803e3d6000fd5b505050506040513d601f19601f8201168201806040525081019061050f919061112c565b506040516352a42ae960e01b8152336004820152602481018590526044810187905260648101869052608481018890526001600160a01b038216906352a42ae99060a401600060405180830381600087803b15801561056d57600080fd5b505af1158015610581573d6000803e3d6000fd5b505060408051878152602081018b9052908101899052606081018890526001600160a01b03861692507f974f9120c03f8d0ac65ccdf08538f4f20596b82423620901f4242446c3bac4d9915060800160405180910390a250505050505050565b6001600160a01b03828116600090815260036020526040808220549051630a3550e160e11b8152600481018590529192839283928392839291169063146aa1c29060240160a06040518083038186803b15801561063d57600080fd5b505afa158015610651573d6000803e3d6000fd5b505050506040513d601f19601f820116820180604052508101906106759190611176565b939b929a50909850965090945092505050565b6001600160a01b038083166000908152600360205260409020548391166106c15760405162461bcd60e51b815260040161030a90611213565b6001600160a01b03838116600090815260036020526040808220549051632072f4d560e11b815233600482015260248101869052919216906340e5e9aa90604401602060405180830381600087803b15801561071c57600080fd5b505af1158015610730573d6000803e3d6000fd5b505050506040513d601f19601f82011682018060405250810190610754919061115e565b905082336001600160a01b0316856001600160a01b03167f3d3b314be93dc43986c9aec2e4d2e007b20ac4d5923d073e1b58e7d2116acd8e8460405161079c91815260200190565b60405180910390a450505050565b6001600160a01b0380841660009081526003602052604081205490918591166107e55760405162461bcd60e51b815260040161030a90611213565b6001600160a01b0385811660009081526003602052604090819020549051631236c47760e31b815260048101879052602481018690529116906391b623b89060440160206040518083038186803b15801561083f57600080fd5b505afa158015610853573d6000803e3d6000fd5b505050506040513d601f19601f82011682018060405250810190610877919061112c565b95945050505050565b6001600160a01b038087166000908152600360205260409020548791166108b95760405162461bcd60e51b815260040161030a90611213565b6001600160a01b0380881660009081526003602052604080822054915460015491516302e6272b60e11b8152928416936305cc4e569361090b938c9333938d93919216908c908c908c9060040161124a565b600060405180830381600087803b15801561092557600080fd5b505af1158015610939573d6000803e3d6000fd5b505060408051898152602081018990528793503392506001600160a01b038b16917f2edcdd0be6c279efae34d8915ded9d24a6e17c88888f283f1c873c3c29e00347910160405180910390a450505050505050565b6002546001600160a01b031633146109e05760405162461bcd60e51b8152602060048201526015602482015274464143544f52595f4f4e4c595f54494d454c4f434b60581b604482015260640161030a565b6107d08110610a2a5760405162461bcd60e51b8152602060048201526016602482015275119050d513d49657d3505617d1915157d15610d1515160521b604482015260640161030a565b600055565b6001600160a01b038281166000908152600360205260409081902054905163932ced7b60e01b81523360048201526024810184905291169063932ced7b906044015b600060405180830381600087803b158015610a8b57600080fd5b505af1158015610a9f573d6000803e3d6000fd5b505050505050565b6001600160a01b0382811660009081526003602052604090819020549051639809758160e01b815233600482015260248101849052911690639809758190604401610a71565b6001600160a01b0381811660009081526003602052604081205490911615610b1757506001610b1b565b5060005b919050565b6002546001600160a01b03163314610b725760405162461bcd60e51b8152602060048201526015602482015274464143544f52595f4f4e4c595f54494d454c4f434b60581b604482015260640161030a565b600180546001600160a01b0319166001600160a01b0392909216919091179055565b6001600160a01b03808a166000908152600360205260409020548a9116610bcd5760405162461bcd60e51b815260040161030a90611213565b6000805460015490916001600160a01b03909116905b8a811015610de5576001600160a01b03808e16600090815260036020526040902054166305cc4e568d8d84818110610c2b57634e487b7160e01b600052603260045260246000fd5b90506020020135338d8d86818110610c5357634e487b7160e01b600052603260045260246000fd5b9050602002013587878e8e89818110610c7c57634e487b7160e01b600052603260045260246000fd5b905060200201358d8d8a818110610ca357634e487b7160e01b600052603260045260246000fd5b9050602002810190610cb591906112bf565b6040518963ffffffff1660e01b8152600401610cd898979695949392919061124a565b600060405180830381600087803b158015610cf257600080fd5b505af1158015610d06573d6000803e3d6000fd5b50505050878782818110610d2a57634e487b7160e01b600052603260045260246000fd5b90506020020135336001600160a01b03168e6001600160a01b03167f2edcdd0be6c279efae34d8915ded9d24a6e17c88888f283f1c873c3c29e003478f8f86818110610d8657634e487b7160e01b600052603260045260246000fd5b905060200201358e8e87818110610dad57634e487b7160e01b600052603260045260246000fd5b90506020020135604051610dcb929190918252602082015260400190565b60405180910390a480610ddd81611307565b915050610be3565b50505050505050505050505050565b60008084471015610e475760405162461bcd60e51b815260206004820152601d60248201527f437265617465323a20696e73756666696369656e742062616c616e6365000000604482015260640161030a565b8251610e955760405162461bcd60e51b815260206004820181905260248201527f437265617465323a2062797465636f6465206c656e677468206973207a65726f604482015260640161030a565b8383516020850187f590506001600160a01b038116610ef65760405162461bcd60e51b815260206004820152601960248201527f437265617465323a204661696c6564206f6e206465706c6f7900000000000000604482015260640161030a565b949350505050565b61114b8061134783390190565b60008083601f840112610f1c578182fd5b50813567ffffffffffffffff811115610f33578182fd5b6020830191508360208260051b8501011115610f4e57600080fd5b9250929050565b80518015158114610b1b57600080fd5b600060208284031215610f76578081fd5b8135610f818161132e565b9392505050565b600080600080600080600080600060a08a8c031215610fa5578485fd5b8935610fb08161132e565b985060208a013567ffffffffffffffff80821115610fcc578687fd5b610fd88d838e01610f0b565b909a50985060408c0135915080821115610ff0578687fd5b610ffc8d838e01610f0b565b909850965060608c0135915080821115611014578586fd5b6110208d838e01610f0b565b909650945060808c0135915080821115611038578384fd5b506110458c828d01610f0b565b915080935050809150509295985092959850929598565b6000806040838503121561106e578182fd5b82356110798161132e565b946020939093013593505050565b60008060006060848603121561109b578283fd5b83356110a68161132e565b95602085013595506040909401359392505050565b60008060008060008060a087890312156110d3578182fd5b86356110de8161132e565b9550602087013594506040870135935060608701359250608087013567ffffffffffffffff81111561110e578283fd5b61111a89828a01610f0b565b979a9699509497509295939492505050565b60006020828403121561113d578081fd5b610f8182610f55565b600060208284031215611157578081fd5b5035919050565b60006020828403121561116f578081fd5b5051919050565b600080600080600060a0868803121561118d578081fd5b85519450602086015193506040860151925060608601516111ad8161132e565b91506111bb60808701610f55565b90509295509295909350565b600080600080600060a086880312156111de578081fd5b8535945060208601359350604086013592506060860135915060808601356112058161132e565b809150509295509295909350565b6020808252601b908201527f464143544f52595f44524f505f444f45535f4e4f545f45584953540000000000604082015260600190565b8881526001600160a01b03888116602083015260408201889052606082018790528516608082015260a0810184905260e060c08201819052810182905260006101006001600160fb1b0384111561129f578182fd5b8360051b8086838601379290920190910190815298975050505050505050565b6000808335601e198436030181126112d5578283fd5b83018035915067ffffffffffffffff8211156112ef578283fd5b6020019150600581901b3603821315610f4e57600080fd5b600060001982141561132757634e487b7160e01b81526011600452602481fd5b5060010190565b6001600160a01b038116811461134357600080fd5b5056fe608060405234801561001057600080fd5b50600080546001600160a01b03191633179055611119806100326000396000f3fe608060405234801561001057600080fd5b506004361061009e5760003560e01c8063932ced7b11610066578063932ced7b1461019357806398097581146101a6578063c45a0155146101b9578063c4d66de8146101e4578063fc0c546a146101f75761009e565b806305cc4e56146100a3578063146aa1c2146100b857806340e5e9aa1461013c57806352a42ae91461015d57806391b623b814610170575b600080fd5b6100b66100b1366004610ebb565b61020a565b005b6101046100c6366004610ea3565b60026020819052600091825260409091208054600182015492820154600390920154909291906001600160a01b03811690600160a01b900460ff1685565b604080519586526020860194909452928401919091526001600160a01b031660608301521515608082015260a0015b60405180910390f35b61014f61014a366004610e19565b610519565b604051908152602001610133565b6100b661016b366004610e42565b610640565b61018361017e366004610f73565b6107cd565b6040519015158152602001610133565b6100b66101a1366004610e19565b610818565b6100b66101b4366004610e19565b610900565b6000546101cc906001600160a01b031681565b6040516001600160a01b039091168152602001610133565b6100b66101f2366004610dff565b6109e2565b6001546101cc906001600160a01b031681565b6000546001600160a01b0316331461023d5760405162461bcd60e51b815260040161023490610fe3565b60405180910390fd5b600083815260026020818152604092839020835160a081018552815480825260018301549382019390935292810154938301939093526003909201546001600160a01b0381166060830152600160a01b900460ff16151560808201529042116102db5760405162461bcd60e51b815260206004820152601060248201526f111493d417d393d517d4d5105495115160821b6044820152606401610234565b4281602001511161031b5760405162461bcd60e51b815260206004820152600a602482015269111493d417d15391115160b21b6044820152606401610234565b806080015161035e5760405162461bcd60e51b815260206004820152600f60248201526e44524f505f4e4f545f41435449564560881b6044820152606401610234565b61036889856107cd565b156103ac5760405162461bcd60e51b8152602060048201526014602482015273111493d417d053149150511657d0d3105253515160621b6044820152606401610234565b60408051602081018b90526bffffffffffffffffffffffff1960608b901b169181019190915260548101889052600090607401604051602081830303815290604052805190602001209050610437848480806020026020016040519081016040528093929190818152602001838360200280828437600092019190915250899250859150610a2e9050565b6104785760405162461bcd60e51b8152602060048201526012602482015271222927a82fa4a72b20a624a22fa82927a7a360711b6044820152606401610234565b600061271088846040015161048d9190611022565b610497919061100e565b905060006104a5828b611041565b9050896002600089815260200190815260200160002060020160008282546104cd9190611041565b909155506104dd90508c88610aed565b6001546104f4906001600160a01b03168c83610b36565b60015461050b906001600160a01b03168984610b36565b505050505050505050505050565b600080546001600160a01b031633146105445760405162461bcd60e51b815260040161023490610fe3565b600082815260026020818152604092839020835160a081018552815481526001820154928101929092529182015492810192909252600301546001600160a01b0380821660608401819052600160a01b90920460ff16151560808401528516146105e25760405162461bcd60e51b815260206004820152600f60248201526e222927a82fa7a7262cafa7aba722a960891b6044820152606401610234565b6000838152600260208190526040808320838155600180820185905592810193909355600390920180546001600160a81b0319169055908201519054610635916001600160a01b03909116908690610b36565b604001519392505050565b6000546001600160a01b0316331461066a5760405162461bcd60e51b815260040161023490610fe3565b600084815260026020526040902054156106b45760405162461bcd60e51b815260206004820152600b60248201526a44524f505f45584953545360a81b6044820152606401610234565b4282116106fb5760405162461bcd60e51b815260206004820152601560248201527444524f505f494e56414c49445f454e445f4441544560581b6044820152606401610234565b82821161074a5760405162461bcd60e51b815260206004820152601760248201527f44524f505f494e56414c49445f53544152545f444154450000000000000000006044820152606401610234565b6040805160a08101825293845260208085019384528482019283526001600160a01b039687166060860190815260016080870181815260009889526002938490529390972095518655935195850195909555905193830193909355516003909101805492511515600160a01b026001600160a81b03199093169190931617179055565b6000806107dc6101008561100e565b905060006107ec610100866110a3565b60009485526003602090815260408087209487529390529190932054600190911b908116149392505050565b6000546001600160a01b031633146108425760405162461bcd60e51b815260040161023490610fe3565b600081815260026020818152604092839020835160a081018552815481526001820154928101929092529182015492810192909252600301546001600160a01b0380821660608401819052600160a01b90920460ff16151560808401528416146108da5760405162461bcd60e51b81526020600482015260096024820152682727aa2fa7aba722a960b91b6044820152606401610234565b506000908152600260205260409020600301805460ff60a01b1916600160a01b17905550565b6000546001600160a01b0316331461092a5760405162461bcd60e51b815260040161023490610fe3565b600081815260026020818152604092839020835160a081018552815481526001820154928101929092529182015492810192909252600301546001600160a01b0380821660608401819052600160a01b90920460ff16151560808401528416146109c25760405162461bcd60e51b81526020600482015260096024820152682727aa2fa7aba722a960b91b6044820152606401610234565b506000908152600260205260409020600301805460ff60a01b1916905550565b6000546001600160a01b03163314610a0c5760405162461bcd60e51b815260040161023490610fe3565b600180546001600160a01b0319166001600160a01b0392909216919091179055565b600081815b8551811015610ae0576000868281518110610a5e57634e487b7160e01b600052603260045260246000fd5b60200260200101519050808311610aa0576040805160208101859052908101829052606001604051602081830303815290604052805190602001209250610acd565b60408051602081018390529081018490526060016040516020818303038152906040528051906020012092505b5080610ad881611088565b915050610a33565b50831490505b9392505050565b6000610afb6101008461100e565b90506000610b0b610100856110a3565b6000938452600360209081526040808620948652939052919092208054600190921b90911790555050565b604080516001600160a01b038416602482015260448082018490528251808303909101815260649091019091526020810180516001600160e01b031663a9059cbb60e01b179052610b88908490610b8d565b505050565b6000610be2826040518060400160405280602081526020017f5361666545524332303a206c6f772d6c6576656c2063616c6c206661696c6564815250856001600160a01b0316610c5f9092919063ffffffff16565b805190915015610b885780806020019051810190610c009190610e83565b610b885760405162461bcd60e51b815260206004820152602a60248201527f5361666545524332303a204552433230206f7065726174696f6e20646964206e6044820152691bdd081cdd58d8d9595960b21b6064820152608401610234565b6060610c6e8484600085610c76565b949350505050565b606082471015610cd75760405162461bcd60e51b815260206004820152602660248201527f416464726573733a20696e73756666696369656e742062616c616e636520666f6044820152651c8818d85b1b60d21b6064820152608401610234565b610ce085610da5565b610d2c5760405162461bcd60e51b815260206004820152601d60248201527f416464726573733a2063616c6c20746f206e6f6e2d636f6e74726163740000006044820152606401610234565b600080866001600160a01b03168587604051610d489190610f94565b60006040518083038185875af1925050503d8060008114610d85576040519150601f19603f3d011682016040523d82523d6000602084013e610d8a565b606091505b5091509150610d9a828286610daf565b979650505050505050565b803b15155b919050565b60608315610dbe575081610ae6565b825115610dce5782518084602001fd5b8160405162461bcd60e51b81526004016102349190610fb0565b80356001600160a01b0381168114610daa57600080fd5b600060208284031215610e10578081fd5b610ae682610de8565b60008060408385031215610e2b578081fd5b610e3483610de8565b946020939093013593505050565b600080600080600060a08688031215610e59578081fd5b610e6286610de8565b97602087013597506040870135966060810135965060800135945092505050565b600060208284031215610e94578081fd5b81518015158114610ae6578182fd5b600060208284031215610eb4578081fd5b5035919050565b60008060008060008060008060e0898b031215610ed6578283fd5b88359750610ee660208a01610de8565b96506040890135955060608901359450610f0260808a01610de8565b935060a0890135925060c089013567ffffffffffffffff80821115610f25578384fd5b818b0191508b601f830112610f38578384fd5b813581811115610f46578485fd5b8c60208260051b8501011115610f5a578485fd5b6020830194508093505050509295985092959890939650565b60008060408385031215610f85578182fd5b50508035926020909101359150565b60008251610fa6818460208701611058565b9190910192915050565b6000602082528251806020840152610fcf816040850160208701611058565b601f01601f19169190910160400192915050565b60208082526011908201527044524f505f4f4e4c595f464143544f525960781b604082015260600190565b60008261101d5761101d6110cd565b500490565b600081600019048311821515161561103c5761103c6110b7565b500290565b600082821015611053576110536110b7565b500390565b60005b8381101561107357818101518382015260200161105b565b83811115611082576000848401525b50505050565b600060001982141561109c5761109c6110b7565b5060010190565b6000826110b2576110b26110cd565b500690565b634e487b7160e01b600052601160045260246000fd5b634e487b7160e01b600052601260045260246000fdfea26469706673582212209406b7cbae4d0939324b32f6082e72c15a75a36f9b5f756071b79f20a09ee2c364736f6c63430008030033a2646970667358221220233d374d9d7b2598771f1577a73b247d4d3c30baaf1d9f209f420ef8f50081c664736f6c63430008030033",
  "linkReferences": {},
  "deployedLinkReferences": {}
}